S00C00004C4142332E7372656316
S11300000C9434000C9451000C9451000C94510045
S11300100C9451000C9451000C9451000C94510018
S11300200C9451000C9451000C9451000C94510008
S11300300C9451000C9451000C9451000C945100F8
S11300400C9451000C9451000C94E2000C94510057
S11300500C9451000C94AB000C9451000C9451007E
S11300600C9451000C94510011241FBECFEFD8E022
S1130070DEBFCDBF11E0A0E0B1E0EEE5F2E002C0EA
S113008005900D92A239B107D9F721E0A2E9B1E0B8
S113009001C01D92A739B207E1F70E9480000C94B9
S11300A02D010C940000ECE7F0E01082AEE7B0E024
S11300B08C9181608C938C9182608C93808180621E
S11300C0808380818064808380818F778083EAE766
S11300D0F0E0808188608083808187608083808174
S11300E0806880830895F8948FEF8AB984B917B82B
S11300F01092C1000E9453000E94FA00789408955F
S11301000E947300809196018111FCCF80E091E000
S11301100E9415018AE00E9426018DE00E942601BA
S11301208AE00E94260184E391E00E9415018AE09E
S11301300E9426018DE00E94260181E691E00E9442
S113014015018AE00E9426018DE00E94260181E0CB
S113015080939601D7CF1F920F920FB60F9211245E
S11301608F93EF93FF9380919501882319F0813049
S113017071F01BC0ECE7F0E08081887F8083809180
S113018079008093940181E0809395010EC0ECE79F
S1130190F0E08081887F808380818160808380918A
S11301A079008093930110929501EAE7F0E0808151
S11301B080618083FF91EF918F910F900FBE0F901C
S11301C01F9018951F920F920FB60F9211248F93C0
S11301D08091C600809392018091C00085FFFCCF7E
S11301E0809192018093C6008F910F900FBE0F9063
S11301F01F9018958AB18E7F8AB98AB182608AB9B4
S11302001092C000E1ECF0E0108280818869808364
S1130210E2ECF0E0108280818660808387E690E0E3
S11302209093C5008093C4000895AC0120E007C0FA
S11302309091C00095FFFCCF3093C6002F5FFA0168
S1130240E20FF11D30813111F3CF08959091C00078
S111025095FFFCCF8093C6000895F894FFCF6D
S113025E0A0D20202020202A2A2A2A2A2A2A2A2A5B
S113026E2A2A2A2A2A486F6C6120636F6D6F2065D3
S113027E7374612A2A2A2A2A2A2A2A2A2A2A2A2A02
S113028E2A2A2A0020202020202020202020436FEC
S113029E6C6F71756520312070617261206C6565BB
S11302AE7220706F74656E63696F6D6574726F73AF
S11302BE0020202020202020202020436F6C6F71EE
S11302CE75652032207061726120696E6372656D8E
S11302DE656E74617220636F6E7461646F720A0D61
S10502EE00000A
S9030000FC
