S00C00004C4142332E7372656316
S11300000C9452000C946F000C946F000C946F00CD
S11300100C946F000C946F000C946F000C946F00A0
S11300200C946F000C946F000C946F000C946F0090
S11300300C946F000C946F000C946F000C946F0080
S11300400C946F000C946F000C9428020C946F00B5
S11300500C946F000C94F1010C946F000C946F00DD
S11300600C946F000C946F0038013D01420147016C
S11300704C01510156015B01600165017401790174
S11300807E01830188018D01920197019C01A101E8
S1130090B001B501BA01BF01C401C901CE01D30148
S11300A0D801DD0111241FBECFEFD8E0DEBFCDBFE4
S11300B012E0A0E0B1E0E6E4F5E002C005900D92A4
S11300C0A430B107D9F722E0A4E0B2E001C01D9248
S11300D0A131B207E1F70E949E000C94A1020C9496
S11300E00000ECE7F0E01082AEE7B0E08C918160B4
S11300F08C938C9182608C938081806280838081D8
S11301008064808380818F778083EAE7F0E0808158
S11301108860808380818760808380818068808319
S11301200895F8948FEF8AB984B917B81092C10072
S11301300E9471000E944002789408950E949100E8
S1130140EAE7F0E08081806480838091100281116D
S113015024C08AE091E00E945B028AE00E946C0263
S11301608DE00E946C028AE00E946C028EE391E0B2
S11301700E945B028AE00E946C028DE00E946C0285
S11301808BE691E00E945B028AE00E946C028DE0A3
S11301900E946C0281E08093100280910C028823FB
S11301A079F280910C02813321F0823309F412C177
S11301B0C7CF8BE991E00E945B028AEC91E00E9438
S11301C05B0220910E0230E0C8EED3E0C901BE010B
S11301D00E9473028B0170930B0260930A0248E140
S11301E05CEF649FC001659F900D749F900D112476
S11301F0820F931F64E670E00E947302FB01709308
S11302000902609308020C9FB0010D9F700D1C9FA2
S1130210700D112444E64E9FC0014F9F900D112490
S1130220EB01C80FD91FC9018C1B9D0B6AE070E05C
S11302300E9473027093070260930602CB01880F39
S1130240991F660F771F660F771F660F771F680F5A
S1130250791F6C0F7D1F261B370B309305022093EB
S11302600402EA30F105A8F5EC5CFF4F0C94870218
S1130270809100010E946C022CC0809101010E94B7
S11302806C0227C0809102010E946C0222C08091FE
S113029003010E946C021DC0809104010E946C0243
S11302A018C0809105010E946C0213C08091060160
S11302B00E946C020EC0809107010E946C0209C06A
S11302C0809108010E946C0204C0809109010E947F
S11302D06C02E0910602F0910702EA30F105A8F5FC
S11302E0E25CFF4F0C948702809100010E946C0233
S11302F02CC0809101010E946C0227C080910201F0
S11303000E946C0222C0809103010E946C021DC0F5
S1130310809104010E946C0218C0809105010E9422
S11303206C0213C0809106010E946C020EC0809181
S113033007010E946C0209C0809108010E946C02AE
S113034004C0809109010E946C02E0910402F091C2
S11303500502EA30F105A8F5E85BFF4F0C9487022B
S1130360809100010E946C022CC0809101010E94C6
S11303706C0227C0809102010E946C0222C080910D
S113038003010E946C021DC0809104010E946C0252
S113039018C0809105010E946C0213C0809106016F
S11303A00E946C020EC0809107010E946C0209C079
S11303B0809108010E946C0204C0809109010E948E
S11303C06C021092100210920C028BE991E00E94D0
S11303D05B02B6CE10920C028EEE91E00E945B029C
S11303E0AFCE1F920F920FB60F9211248F93EF93FB
S11303F0FF9380910F02882319F0813071F01BC0A4
S1130400ECE7F0E08081887F80838091790080939D
S11304100E0281E080930F020EC0ECE7F0E08081D1
S1130420887F80838081816080838091790080933C
S11304300D0210920F02EAE7F0E080818061808370
S1130440FF91EF918F910F900FBE0F901F90189511
S11304501F920F920FB60F9211248F938091C600B2
S113046080930C028091C00085FFFCCF80910C0228
S11304708093C6008F910F900FBE0F901F90189518
S11304808AB18E7F8AB98AB182608AB91092C0001B
S1130490E1ECF0E01082808188698083E2ECF0E096
S11304A0108280818660808387E690E09093C50007
S11304B08093C4000895AC0120E007C09091C0006F
S11304C095FFFCCF3093C6002F5FFA01E20FF11DB8
S11304D030813111F3CF08959091C00095FFFCCF86
S11304E08093C600089597FB072E16F4009407D056
S11304F077FD09D00E948D0207FC05D03EF490954B
S113050081959F4F0895709561957F4F0895EE0FE3
S1130510FF1F0590F491E02D0994AA1BBB1B51E128
S113052007C0AA1FBB1FA617B70710F0A61BB70B5F
S1130530881F991F5A95A9F780959095BC01CD0104
S10905400895F894FFCFBA
S1130546303132333435363738390A0D20202020FD
S1130556202A2A2A2A2A2A2A2A2A2A2A2A2A2A48DD
S11305666F6C6120636F6D6F20657374612A2A2A2C
S11305762A2A2A2A2A2A2A2A2A2A2A2A2A0020200F
S11305862020202020202020436F6C6F7175652069
S1130596312070617261206C65657220706F7465BC
S11305A66E63696F6D6574726F730020202020205E
S11305B62020202020436F6C6F71756520322070D7
S11305C661726120696E6372656D656E7461722015
S11305D6636F6E7461646F720A0D000A0D2D2D2D02
S11305E62D2D2D2D2D2D2D2D2D2D2D2D2D2D2D2D31
S11305F62D2D2D2D2D2D2D2D2D2D2D2D2D2D2D2D21
S11306062D2D2D2D2D2D2D0A0D004C65637475721F
S1130616612061637475616C20646520706F746514
S11306266E63696F6D6574726F2065733A000A0DA7
S1130636496E677265736520756E2076616C6F729C
S10706460A0D000095
S9030000FC
