:100000000C9434000C9446000C9446000C9446006A
:100010000C9446000C9446000C9446000C94460048
:100020000C9446000C9446000C9446000C94460038
:100030000C9446000C9446000C9446000C94460028
:100040000C9446000C94BA000C9446000C944600A4
:100050000C9446000C9483000C9446000C944600CB
:100060000C9446000C94460011241FBECFEFD8E03C
:10007000DEBFCDBF21E0A0E0B1E001C01D92A33002
:10008000B207E1F70E9475000C9407010C94000080
:10009000ECE7F0E01082AEE7B0E08C9181608C93E9
:1000A0008C9182608C938081806280838081806467
:1000B000808380818F778083EAE7F0E080818860A9
:1000C00080838081876080838081806880830895B9
:1000D000F8948FEF8AB917B80E9448000E94E30095
:1000E0008CB580688CBD789408950E946800EAE71A
:1000F000F0E08081806480838FE39CE90197F1F7D1
:1001000000C00000F4CF1F920F920FB60F9211247F
:100110008F93EF93FF9380910201882319F0813030
:1001200071F01BC0ECE7F0E08081887F80838091D4
:1001300079008093010181E0809302010EC0ECE719
:10014000F0E08081887F80838081816080838091DE
:1001500079008093000110920201EAE7F0E08081CB
:1001600080618083FF91EF918F910F900FBE0F9070
:100170001F9018951F920F920FB60F9211242F9374
:100180003F934F935F936F937F938F939F93AF931F
:10019000BF93EF93FF938EB5813021F480910101DD
:1001A0000E940201FF91EF91BF91AF919F918F91BA
:1001B0007F916F915F914F913F912F910F900FBE63
:1001C0000F901F90189584B1806184B984B1837DAC
:1001D00084B98CB58F7D8CBD8CB5877F8CBD8CB57B
:1001E0008B7F8CBD8CB581608CBD8CB58D7F8CBDBB
:1001F0008DB58E7F8DBD8CB58F7E8CBD8CB58064AA
:100200008CBD08958EBD0DB407FEFDCF0895F89402
:02021000FFCF1E
:00000001FF
