:100000000C9434000C9446000C9446000C9446006A
:100010000C9446000C9446000C9446000C94460048
:100020000C9446000C9446000C9446000C94460038
:100030000C9446000C9446000C9446000C94460028
:100040000C9446000C9446000C9446000C94460018
:100050000C9446000C9479000C9446000C944600D5
:100060000C9446000C94460011241FBECFEFD8E03C
:10007000DEBFCDBF21E0A0E0B1E001C01D92A33002
:10008000B207E1F70E9471000C94B0000C940000DC
:10009000ECE7F0E01082AEE7B0E08C9181608C93E9
:1000A0008C9182608C938081806280838081806467
:1000B000808380818F778083EAE7F0E080818860A9
:1000C00080838081876080838081806880830895B9
:1000D000F8948FEF8AB984B917B80E9448007894D1
:1000E00008950E946800EAE7F0E0808180648083E0
:1000F000FACF1F920F920FB60F9211248F93EF93A6
:10010000FF9380910201882319F0813071F01BC0A8
:10011000ECE7F0E08081887F808380917900809394
:10012000010181E0809302010EC0ECE7F0E08081E4
:10013000887F808380818160808380917900809333
:10014000000110920201EAE7F0E080818061808383
:10015000FF91EF918F910F900FBE0F901F90189508
:04016000F894FFCF41
:00000001FF
