:100000000C9434000C9446000C9446000C9446006A
:100010000C9446000C9446000C9446000C94460048
:100020000C9446000C9446000C9446000C94460038
:100030000C9446000C9446000C9446000C94460028
:100040000C9446000C94BB000C9446000C944600A3
:100050000C9446000C9484000C9446000C944600CA
:100060000C9446000C94460011241FBECFEFD8E03C
:10007000DEBFCDBF21E0A0E0B1E001C01D92A33002
:10008000B207E1F70E9473000C94F3000C94000097
:10009000ECE7F0E01082AEE7B0E08C9181608C93E9
:1000A0008C9182608C938081806280838081806467
:1000B000808380818F778083EAE7F0E080818860A9
:1000C00080838081876080838081806880830895B9
:1000D000F89417B80E94D4008CB580688CBD0E943B
:1000E0004800789408950E946800EAE7F0E0808173
:1000F000806480832FEF89EF90E021508040904012
:10010000E1F700C00000F1CF1F920F920FB60F92DF
:1001100011248F93EF93FF9380910001882319F0AE
:10012000813071F01BC0ECE7F0E08081887F808334
:10013000809179008093020181E0809300010EC0DC
:10014000ECE7F0E08081887F80838081816080831C
:10015000809179008093010110920001EAE7F0E0BC
:10016000808180618083FF91EF918F910F900FBE0E
:100170000F901F9018951F920F920FB60F92112497
:100180008F939F938EB5813019F4909101019EBD9C
:10019000823019F4809102018EBD9F918F910F9052
:1001A0000FBE0F901F90189584B1806184B984B1FF
:1001B000837D84B98CB58F7D8CBD8CB5877F8CBDDC
:1001C0008CB58B7F8CBD8CB581608CBD8CB58D7FE3
:1001D0008CBD8DB58E7F8DBD8CB58F7E8CBD8CB565
:0A01E00080648CBD0895F894FFCFF1
:00000001FF
