:100000000C9434000C9451000C9451000C94510049
:100010000C9451000C9451000C9451000C9451001C
:100020000C9451000C9451000C9451000C9451000C
:100030000C9451000C9451000C9451000C945100FC
:100040000C9451000C9451000C94A3000C9451009A
:100050000C9451000C9451000C9451000C945100DC
:100060000C9451000C94510011241FBECFEFD8E026
:10007000DEBFCDBF11E0A0E0B1E0E2E4F2E002C0FB
:1000800005900D92A439B107D9F721E0A4E9B1E0B8
:1000900001C01D92A739B207E1F70E945D000C94E0
:1000A0001F010C940000F8948FEF8AB917B80E94D2
:1000B000EC000E94B700789408950E94530080914C
:1000C0009501811124C080E091E00E9407018AE03F
:1000D0000E9418018DE00E9418018AE00E94180118
:1000E00084E391E00E9407018AE00E9418018DE0FC
:1000F0000E94180181E691E00E9407018AE00E94B7
:1001000018018DE00E94180181E080939501809193
:1001100094018823A1F282E00E94D60084E00E942C
:10012000E2000E94E7008093960182E00E94DC00DA
:1001300080919601843021F481E991E00E940701C9
:1001400010929401BCCF1F920F920FB60F92112400
:100150008F938091C600809394018091C00085FFA9
:10016000FCCF8F910F900FBE0F901F90189584B108
:100170008C6284B984B18F7E84B98CB58F7D8CBD3F
:100180008CB5877F8CBD8CB58B7F8CBD8CB5816029
:100190008CBD8CB58D7F8CBD8DB58E7F8DBD8CB5A6
:1001A00080618CBD8CB580648CBD0895823019F45B
:1001B00085B18B7F85B90895823019F485B184604B
:1001C00085B908958EBD0DB407FEFDCF08950DB419
:1001D00007FEFDCF8EB508958AB18E7F8AB98AB1A8
:1001E00082608AB91092C000E1ECF0E01082808158
:1001F00088698083E2ECF0E01082808186608083F1
:1002000087E690E09093C5008093C4000895AC0108
:1002100020E007C09091C00095FFFCCF3093C6004E
:100220002F5FFA01E20FF11D30813111F3CF0895F4
:100230009091C00095FFFCCF8093C6000895F8947C
:02024000FFCFEE
:100242000A0D20202020202A2A2A2A2A2A2A2A2A7B
:100252002A2A2A2A2A486F6C6120636F6D6F2065F3
:100262007374612A2A2A2A2A2A2A2A2A2A2A2A2A22
:100272002A2A2A0020202020202020202020436F0C
:100282006C6F71756520312070617261206C6565DB
:100292007220706F74656E63696F6D6574726F73CF
:1002A2000020202020202020202020436F6C6F710E
:1002B20075652032207061726120696E6372656DAE
:1002C200656E74617220636F6E7461646F720A0D81
:0402D20000343700BD
:00000001FF
