S00C00004C4142332E7372656316
S11300000C948E000C94AB000C94AB000C94AB00DD
S11300100C94AB000C94AB000C94AB000C94AB00B0
S11300200C94AB000C94AB000C94AB000C94AB00A0
S11300300C94AB000C94AB000C94AB000C94AB0090
S11300400C94AB000C94AB000C94AB010C94AB007F
S11300500C94AB000C94AB000C94AB000C94AB0070
S11300600C94AB000C94AB00320238023E02440202
S11300704A02500256025C026202680279027F025E
S113008085028B02910297029D02A302A902AF028C
S1130090C002C602CC02D202D802DE02E402EA02A4
S11300A0F002F6025C03620368036E0374037A03CE
S11300B0800386038C039203A303A903AF03B50350
S11300C0BB03C103C703CD03D303D903EA03F0037E
S11300D0F603FC03020408040E0414041A042004A6
S11300E08F0495049B04A104A704AD04B304B904CC
S11300F0BF04C504D604DC04E204E804EE04F404FA
S1130100FA04000506050C051D05230529052F0520
S113011035053B05410547054D05530511241FBE13
S1130120CFEFD8E0DEBFCDBF12E0A0E0B1E0EAEE51
S1130130FBE002C005900D92AA32B107D9F722E084
S1130140AAE2B2E001C01D92A933B207E1F70E940E
S1130150B9000C94F3050C940000F8948FEF8AB95D
S113016083E087B90E9492050E945D051BB87894CC
S113017008950E94AD0080912E02811128C08091C3
S11301802D02811124C08AE091E00E94AD058AE02D
S11301900E94BE058DE00E94BE058AE00E94BE0555
S11301A08EE391E00E94AD058AE00E94BE058DE0D9
S11301B00E94BE058BE691E00E94AD058AE00E9494
S11301C0BE058DE00E94BE0581E080932E028091E1
S11301D02A02882381F280912A02813331F58091A9
S11301E02D02811122C082E00E947C0581E00E94E0
S11301F088050E948D058093300282E00E9482056A
S113020082E00E947C0582E00E9488050E948D05A0
S113021080932F0282E00E94820560912F028091D8
S113022030020E94BF0110922A0280912A02823376
S1130230A9F481E080932D028BE991E00E94AD0541
S11302408AE00E94BE058DE00E94BE058AE00E94FD
S1130250BE058DE00E94BE0510922A0280912A02FA
S11302608B3271F580912D02813051F580912B02F2
S113027090912C02019690932C0280932B028F3F35
S1130280910534F08FEF90E090932C0280932B0231
S1130290CBE2D2E088810E942A048881880F880FEB
S11302A08BB980912B0290912C02082E892F000C7F
S11302B0881F990B000C881F991F88B910922A0275
S11302C080912A028D3261F580912D02813041F5B1
S11302D080912B0290912C02019790932C02809391
S11302E02B021816190624F010922C0210922B02DD
S11302F0CBE2D2E088810E942A048881880F880F8B
S11303008BB980912B0290912C02082E892F000C1E
S1130310881F990B000C881F991F88B910922A0214
S113032080912A02853609F026CF10922A02109273
S11303302D0210922E028AE00E94BE058AE00E94DD
S1130340BE058AE00E94BE058AE00E94BE058AE0DE
S11303500E94BE0510CF1F920F920FB60F92112468
S11303608F938091C60080932A028091C00085FFFC
S1130370FCCF8F910F900FBE0F901F9018950F9385
S11303801F93CF93DF93C82F262F30E0E8EEF3E0DE
S1130390C901BF010E94C5058B01709338026093A7
S11303A0370248E15CEF649FC001659F900D749F24
S11303B0900D1124820F931F64E670E00E94C5051E
S11303C070933602609335020E9FA0010F9F500D6B
S11303D01E9F500D1124E4E6E69FC001E79F900D97
S11303E01124FA01E80FF91FC9018E1B9F0B6AE063
S11303F070E00E94C5057093340260933302CB0110
S1130400880F991F660F771F660F771F660F771F78
S1130410680F791F6E0F7F1F261B370B3093320234
S1130420209331028AE090E00E94BE058AE090E0C9
S11304300E94BE058AE090E00E94BE058AE090E03A
S11304400E94BE0585EE91E00E94AD05E091350263
S1130450F0913602EA30F10508F03FC0EC5CFF4F42
S11304600C94D9058091000190E00E94BE0535C02E
S11304708091010190E00E94BE052FC0809102018D
S113048090E00E94BE0529C08091030190E00E9483
S1130490BE0523C08091040190E00E94BE051DC0EA
S11304A08091050190E00E94BE0517C0809106016D
S11304B090E00E94BE0511C08091070190E00E9467
S11304C0BE050BC08091080190E00E94BE0505C0E6
S11304D08091090190E00E94BE05E0913302F09101
S11304E03402EA30F10508F03FC0E25CFF4F0C949F
S11304F0D9058091000190E00E94BE0535C080912D
S1130500010190E00E94BE052FC08091020190E09D
S11305100E94BE0529C08091030190E00E94BE059F
S113052023C08091040190E00E94BE051DC080910B
S1130530050190E00E94BE0517C08091060190E07D
S11305400E94BE0511C08091070190E00E94BE0583
S11305500BC08091080190E00E94BE0505C0809107
S1130560090190E00E94BE05E0913102F09132024F
S1130570EA30F10508F03FC0E85BFF4F0C94D90561
S11305808091000190E00E94BE0535C08091010178
S113059090E00E94BE052FC08091020190E00E946D
S11305A0BE0529C08091030190E00E94BE0523C0CE
S11305B08091040190E00E94BE051DC08091050158
S11305C090E00E94BE0517C08091060190E00E9451
S11305D0BE0511C08091070190E00E94BE050BC0CA
S11305E08091080190E00E94BE0505C08091090138
S11305F090E00E94BE052C2F30E0C8EED3E0C90184
S1130600BE010E94C5058B017093380260933702C6
S113061048E15CEF649FC001659F900D749F900D4D
S11306201124820F931F64E670E00E94C505709345
S11306303602609335020C9FF0010D9FF00D1C9F54
S1130640F00D112444E6469FC001479F900D1124EC
S1130650E80FF91FC9018E1B9F0B6AE070E00E942E
S1130660C5057093340260933302CB01880F991F40
S1130670660F771F660F771F660F771F680F791F46
S11306806E0F7F1F261B370B3093320220933102EB
S11306908AE090E00E94BE058DEF91E00E94AD05D6
S11306A0E0913502F0913602EA30F10508F03FC0DE
S11306B0EE5AFF4F0C94D9058091000190E00E94FE
S11306C0BE0535C08091010190E00E94BE052FC097
S11306D08091020190E00E94BE0529C0809103012F
S11306E090E00E94BE0523C08091040190E00E9426
S11306F0BE051DC08091050190E00E94BE0517C093
S11307008091060190E00E94BE0511C0809107010E
S113071090E00E94BE050BC08091080190E00E9409
S1130720BE0505C08091090190E00E94BE05E091DC
S11307303302F0913402EA30F10508F03FC0E45A84
S1130740FF4F0C94D9058091000190E00E94BE05F2
S113075035C08091010190E00E94BE052FC08091B8
S1130760020190E00E94BE0529C08091030190E03F
S11307700E94BE0523C08091040190E00E94BE0542
S11307801DC08091050190E00E94BE0517C08091B4
S1130790060190E00E94BE0511C08091070190E01F
S11307A00E94BE050BC08091080190E00E94BE0526
S11307B005C08091090190E00E94BE05E0913102DC
S11307C0F0913202EA30F10508F03FC0EA59FF4FD8
S11307D00C94D9058091000190E00E94BE0535C0BB
S11307E08091010190E00E94BE052FC0809102011A
S11307F090E00E94BE0529C08091030190E00E9410
S1130800BE0523C08091040190E00E94BE051DC076
S11308108091050190E00E94BE0517C080910601F9
S113082090E00E94BE0511C08091070190E00E94F3
S1130830BE050BC08091080190E00E94BE0505C072
S11308408091090190E00E94BE05DF91CF911F9134
S11308500F9108950F931F93CF93DF93282F30E0C8
S113086008EE13E0C901B8010E94C505EB017093BD
S113087038026093370248E15CEF649FC001659FD2
S1130880900D749F900D1124820F931F64E670E005
S11308900E94C5057093360260933502C09FF00133
S11308A0C19FF00DD09FF00D112444E6469FC00176
S11308B0479F900D1124E80FF91FC9018E1B9F0B50
S11308C06AE070E00E94C5057093340260933302BD
S11308D0CB01880F991F660F771F660F771F660F6E
S11308E0771F680F791F6E0F7F1F261B370B3093FE
S11308F03202209331028AE090E00E94BE0585E135
S113090092E00E94AD05E0913502F0913602EA30A2
S1130910F10508F03FC0E059FF4F0C94D9058091D0
S1130920000190E00E94BE0535C08091010190E075
S11309300E94BE052FC08091020190E00E94BE0576
S113094029C08091030190E00E94BE0523C08091DC
S1130950040190E00E94BE051DC08091050190E055
S11309600E94BE0517C08091060190E00E94BE055A
S113097011C08091070190E00E94BE050BC08091D8
S1130980080190E00E94BE0505C08091090190E035
S11309900E94BE05E0913302F0913402EA30F10581
S11309A008F03FC0E658FF4F0C94D9058091000130
S11309B090E00E94BE0535C08091010190E00E9444
S11309C0BE052FC08091020190E00E94BE0529C09F
S11309D08091030190E00E94BE0523C08091040130
S11309E090E00E94BE051DC08091050190E00E9428
S11309F0BE0517C08091060190E00E94BE0511C09B
S1130A008091070190E00E94BE050BC0809108010F
S1130A1090E00E94BE0505C08091090190E00E940B
S1130A20BE05E0913102F0913202EA30F10508F09E
S1130A303FC0EC57FF4F0C94D9058091000190E022
S1130A400E94BE0535C08091010190E00E94BE0560
S1130A502FC08091020190E00E94BE0529C08091C0
S1130A60030190E00E94BE0523C08091040190E040
S1130A700E94BE051DC08091050190E00E94BE0544
S1130A8017C08091060190E00E94BE0511C08091BC
S1130A90070190E00E94BE050BC08091080190E020
S1130AA00E94BE0505C08091090190E00E94BE0528
S1130AB0DF91CF911F910F91089584B18C6284B915
S1130AC084B18F7E84B98CB58F7D8CBD8CB5877FC6
S1130AD08CBD8CB58B7F8CBD8CB581608CBD8CB589
S1130AE08D7F8CBD8DB58E7F8DBD8CB580618CBDA9
S1130AF08CB580648CBD0895823019F485B18B7FE8
S1130B0085B90895823019F485B1846085B9089552
S1130B108EBD0DB407FEFDCF08950DB407FEFDCFC5
S1130B208EB508958AB18E7F8AB98AB182608AB9F6
S1130B301092C000E1ECF0E010828081886980832B
S1130B40E2ECF0E0108280818660808387E690E0AA
S1130B509093C5008093C4000895AC0120E007C0C1
S1130B609091C00095FFFCCF3093C6002F5FFA012F
S1130B70E20FF11D30813111F3CF08959091C0003F
S1130B8095FFFCCF8093C600089597FB072E16F4BB
S1130B90009407D077FD09D00E94DF0507FC05D03B
S1130BA03EF4909581959F4F0895709561957F4F80
S1130BB00895EE0FFF1F0590F491E02D0994AA1BF0
S1130BC0BB1B51E107C0AA1FBB1FA617B70710F034
S1130BD0A61BB70B881F991F5A95A9F78095909566
S10D0BE0BC01CD010895F894FFCF85
S1130BEA303132333435363738390A0D2020202053
S1130BFA202A2A2A2A2A2A2A2A2A2A2A2A2A2A4833
S1130C0A6F6C6120636F6D6F20657374612A2A2A81
S1130C1A2A2A2A2A2A2A2A2A2A2A2A2A2A00202064
S1130C2A2020202020202020436F6C6F71756520BE
S1130C3A312070617261206C65657220706F746511
S1130C4A6E63696F6D6574726F73002020202020B3
S1130C5A2020202020436F6C6F717565203220702C
S1130C6A61726120696E6372656D656E746172206A
S1130C7A636F6E7461646F720A0D005072657369F2
S1130C8A6F6E65202B207061726120696E637265D4
S1130C9A6D656E7461722C202D20706172612064FE
S1130CAA656372656D656E7461722C20652070616E
S1130CBA7261206D656E75207072696E6369706108
S1130CCA6C200A0D0056616C6F7220706F74656E29
S1130CDA63696F6D6574726F20313A200056616CD6
S1130CEA6F7220706F74656E63696F6D6574726F6D
S1130CFA20323A200056616C6F722044656C20637E
S10D0D0A6F6E7461646F723A20008A
S9030000FC
