S00C00004C4142332E7372656316
S11300000C9434000C9451000C9451000C94510045
S11300100C9451000C9451000C9451000C94510018
S11300200C9451000C9451000C9451000C94510008
S11300300C9451000C9451000C9451000C945100F8
S11300400C9451000C9451000C9489000C945100B0
S11300500C9451000C9451000C9451000C945100D8
S11300600C9451000C94510011241FBECFEFD8E022
S1130070DEBFCDBF11E0A0E0B1E0ECEAF1E002C0E8
S113008005900D92A239B107D9F721E0A2E9B1E0B8
S113009001C01D92A439B207E1F70E945C000C94E0
S11300A0D4000C940000F8948FEF8AB984B917B87F
S11300B00E94A100789408950E94530080919301B6
S11300C0811124C080E091E00E94BC008AE00E947B
S11300D0CD008DE00E94CD008AE00E94CD0084E333
S11300E091E00E94BC008AE00E94CD008DE00E9455
S11300F0CD0081E691E00E94BC008AE00E94CD0020
S11301008DE00E94CD0081E0809393018091920163
S1130110D5CF1F920F920FB60F9211248F93809117
S1130120C600809392018091C00085FFFCCF80912E
S113013092018093C6008F910F900FBE0F901F9075
S113014018958AB18E7F8AB98AB182608AB9109271
S1130150C000E1ECF0E01082808188698083E2ECE9
S1130160F0E0108280818660808387E690E090933F
S1130170C5008093C4000895AC0120E007C09091AD
S1130180C00095FFFCCF3093C6002F5FFA01E20F49
S1130190F11D30813111F3CF08959091C00095FF86
S10F01A0FCCF8093C6000895F894FFCFB4
S11301AC0A0D20202020202A2A2A2A2A2A2A2A2A0E
S11301BC2A2A2A2A2A486F6C6120636F6D6F206586
S11301CC7374612A2A2A2A2A2A2A2A2A2A2A2A2AB5
S11301DC2A2A2A0020202020202020202020436F9F
S11301EC6C6F71756520312070617261206C65656E
S11301FC7220706F74656E63696F6D6574726F7362
S113020C0020202020202020202020436F6C6F71A0
S113021C75652032207061726120696E6372656D40
S113022C656E74617220636F6E7461646F720A0D13
S105023C0000BC
S9030000FC
