:100000000C9498000C94B5000C94B5000C94B500B9
:100010000C94B5000C94B5000C94B5000C94B5008C
:100020000C94B5000C94B5000C94B5000C94B5007C
:100030000C94B5000C94B5000C94B5000C94B5006C
:100040000C94B5000C94B5000C94E0020C94B5002F
:100050000C94B5000C94B5000C94B5000C94B5004C
:100060000C94B5000C94B50022012D013A01470112
:10007000540161016E017B0188019501C803CE0323
:10008000D403DA03E003E603EC03F203F803FE0310
:100090000F0415041B04210427042D043304390420
:1000A0003F04450456045C04620468046E0474044E
:1000B0007A04800486048C0405050B0511051705D8
:1000C0001D05230529052F0535053B054C05520562
:1000D00058055E0564056A05700576057C05820590
:1000E000930599059F05A505AB05B105B705BD05A8
:1000F000C305C90538063E0644064A06500656069C
:100100005C06620668066E067F0685068B0691060B
:1001100097069D06A306A906AF06B506C606CC0639
:10012000D206D806DE06E406EA06F006F606FC0667
:1001300011241FBECFEFD8E0DEBFCDBF12E0A0E09C
:10014000B1E0ECE3FFE002C005900D92A033B107EF
:10015000D9F722E0A0E3B2E001C01D92AB34B207B0
:10016000E1F70E94C3000C949C070C940000F894E3
:100170008FEF8AB983E087B90E943B070E94060788
:100180001BB8789408950E94B7008FE19EE4019710
:10019000F1F700C0000080913002823531F481E037
:1001A00090E090933A0280933902809139029091C5
:1001B0003A02892B69F58091370290913802892B98
:1001C00039F580E191E00E9456078AE00E946707B6
:1001D0008DE00E9467078AE00E94670784E491E04F
:1001E0000E9456078AE00E9467078DE00E94670719
:1001F00081E791E00E9456078AE00E9467078DE040
:100200000E94670781E090E090933A028093390260
:1002100080913002833609F4DAC0809131029091E6
:100220003202019709F0D3C0E09130028E2F90E0A6
:10023000FC01F097EA30F10508F083C0EC5CFF4F59
:100240000C948207E0913502F0913602EE0FFF1F09
:10025000E050FF4F1182108274C0E0913502F0919E
:100260003602EE0FFF1FE050FF4F81E090E09183D8
:10027000808367C0E0913502F0913602EE0FFF1FD8
:10028000E050FF4F82E090E0918380835AC0E0917C
:100290003502F0913602EE0FFF1FE050FF4F83E072
:1002A00090E0918380834DC0E0913502F091360259
:1002B000EE0FFF1FE050FF4F84E090E091838083BA
:1002C00040C0E0913502F0913602EE0FFF1FE05082
:1002D000FF4F85E090E09183808333C0E091350249
:1002E000F0913602EE0FFF1FE050FF4F86E090E0E6
:1002F0009183808326C0E0913502F0913602EE0FA3
:10030000FF1FE050FF4F87E090E09183808319C08A
:10031000E0913502F0913602EE0FFF1FE050FF4FE3
:1003200088E090E0918380830CC0E0913502F091E9
:100330003602EE0FFF1FE050FF4F89E090E09183FF
:10034000808380913502909136020297C4F433C0C5
:10035000AC01440F551F880F991F880F991F880FF4
:10036000991F840F951FF901EE0FFF1FE050FF4FFB
:1003700040815181840F951F2F5F3F4F04C020E0C3
:1003800030E080E090E02330310514F3282F220F75
:10039000220F2BB9082E892F000C881F990B000CF7
:1003A000881F991F88B91092360210923502109258
:1003B00032021092310280913502909136020196FC
:1003C000909336028093350283E6809330028091C9
:1003D0003002882309F4D9CE809131029091320203
:1003E000892B09F0D2CE80913002813469F481E00A
:1003F00090E0909332028093310283E68093300242
:10040000109236021092350280913002813331F41D
:100410008091370290913802892B21F0809130022F
:10042000813569F580913002813521F481E00E94A7
:10043000F40203C080E00E94F40282E00E942507DB
:1004400081E00E9431070E94360780933C0282E0DF
:100450000E942B0782E00E94250782E00E9431075C
:100460000E94360780933B0282E00E942B07609136
:100470003B0280913C020E94020310923002809164
:1004800030028233C1F481E090E09093380280938F
:10049000370281EA91E00E9456078AE00E946707CE
:1004A0008DE00E9467078AE00E9467078DE00E9446
:1004B000670710923002809130028B3281F5809173
:1004C000370290913802019751F580913302909153
:1004D0003402019690933402809333028F3F91054A
:1004E00034F08FEF90E09093340280933302C3E3B3
:1004F000D2E088810E94D3058881880F880F8BB94C
:100500008091330290913402082E892F000C881FAD
:10051000990B000C881F991F88B9109230028091A6
:1005200030028D3271F58091370290913802019737
:1005300041F58091330290913402019790933402F7
:10054000809333021816190624F010923402109288
:100550003302C3E3D2E088810E94D3058881880FEB
:10056000880F8BB98091330290913402082E892F25
:10057000000C881F990B000C881F991F88B91092D6
:10058000300280913002853609F0FFCD10923002A2
:10059000109238021092370210923A0210923902E9
:1005A0008AE00E9467078AE00E9467078AE00E944B
:1005B00067078AE00E9467078AE00E946707E5CD27
:1005C0001F920F920FB60F9211248F938091C60045
:1005D000809330028091C00085FFFCCF8F910F90F7
:1005E0000FBE0F901F901895813039F481E090E094
:1005F0009093420280934102089510924202109219
:10060000410208950F931F93CF93DF93C82F8091DA
:100610004102909142028130910591F420913D0276
:1006200030913E02232B61F422E030E0309340020F
:1006300020933F0221E030E030933E0220933D02C0
:100640008130910571F420913F02309140022230B7
:10065000310539F481E090E09093400280933F02AD
:100660000EC0019761F480913F0290914002019782
:1006700031F482E090E09093400280933F02262F75
:1006800030E0E8EEF3E0C901BF010E946E078B0184
:1006900070934A026093490248E15CEF649FC00195
:1006A000659F900D749F900D1124820F931F64E637
:1006B00070E00E946E0770934802609347020E9F9D
:1006C000A0010F9F500D1E9F500D1124E4E6E69FE0
:1006D000C001E79F900D1124FA01E80FF91FC9012D
:1006E0008E1B9F0B6AE070E00E946E0770934602BB
:1006F00060934502CB01880F991F660F771F660F25
:10070000771F660F771F680F791F6E0F7F1F261BDD
:10071000370B30934402209343028AE090E00E941A
:1007200067078091410290914202892BF1F48AE09F
:1007300090E00E9467078AE090E00E9467078AE0E5
:1007400090E00E9467078AE090E00E9467078BEEC6
:1007500091E00E94560781E090E0909340028093E0
:100760003F0210923E0210923D0280913F02909112
:100770004002019709F0D5C0E0914702F09148028C
:10078000EA30F10508F03FC0E25CFF4F0C948207AD
:100790008091060190E00E94670735C080910701B3
:1007A00090E00E9467072FC08091080190E00E94AE
:1007B000670729C08091090190E00E94670723C064
:1007C00080910A0190E00E9467071DC080910B0193
:1007D00090E00E94670717C080910C0190E00E9492
:1007E000670711C080910D0190E00E9467070BC060
:1007F00080910E0190E00E94670705C080910F0173
:1008000090E00E946707E0914502F0914602EA30CD
:10081000F10508F03FC0E85BFF4F0C948207809120
:10082000060190E00E94670735C08091070190E0C3
:100830000E9467072FC08091080190E00E9467071F
:1008400029C08091090190E00E94670723C0809130
:100850000A0190E00E9467071DC080910B0190E0A3
:100860000E94670717C080910C0190E00E94670703
:1008700011C080910D0190E00E9467070BC080912C
:100880000E0190E00E94670705C080910F0190E083
:100890000E946707E0914302F0914402EA30F105BB
:1008A00008F03FC0EE5AFF4F0C948207809106017A
:1008B00090E00E94670735C08091070190E00E9498
:1008C00067072FC08091080190E00E94670729C048
:1008D0008091090190E00E94670723C080910A017E
:1008E00090E00E9467071DC080910B0190E00E947C
:1008F000670717C080910C0190E00E94670711C044
:1009000080910D0190E00E9467070BC080910E015D
:1009100090E00E94670705C080910F0190E00E945F
:1009200067072C2F30E0C8EED3E0C901BE010E945A
:100930006E078B0170934A026093490248E15CEFB5
:10094000649FC001659F900D749F900D1124820FCC
:10095000931F64E670E00E946E07709348026093F4
:1009600047020C9FF0010D9FF00D1C9FF00D11240C
:1009700044E6469FC001479F900D1124E80FF91FE0
:10098000C9018E1B9F0B6AE070E00E946E07709396
:10099000460260934502CB01880F991F660F771FAF
:1009A000660F771F660F771F680F791F6E0F7F1F07
:1009B000261B370B3093440220934302809141025F
:1009C00090914202892B41F48AE090E00E946707EF
:1009D00083E092E00E94560780913F02909140028E
:1009E000029739F08091410290914202892B09F0DF
:1009F000D5C0E0914702F0914802EA30F10508F0D5
:100A00003FC0E45AFF4F0C9482078091060190E0AA
:100A10000E94670735C08091070190E00E94670738
:100A20002FC08091080190E00E94670729C0809143
:100A3000090190E00E94670723C080910A0190E0BD
:100A40000E9467071DC080910B0190E00E9467071C
:100A500017C080910C0190E00E94670711C080913F
:100A60000D0190E00E9467070BC080910E0190E09D
:100A70000E94670705C080910F0190E00E94670700
:100A8000E0914502F0914602EA30F10508F03FC0DE
:100A9000EA59FF4F0C9482078091060190E00E9472
:100AA000670735C08091070190E00E9467072FC05B
:100AB0008091080190E00E94670729C08091090198
:100AC00090E00E94670723C080910A0190E00E9495
:100AD00067071DC080910B0190E00E94670717C057
:100AE00080910C0190E00E94670711C080910D0178
:100AF00090E00E9467070BC080910E0190E00E9479
:100B0000670705C080910F0190E00E946707E091A0
:100B10004302F0914402EA30F10508F03FC0E05989
:100B2000FF4F0C9482078091060190E00E946707B6
:100B300035C08091070190E00E9467072FC0809127
:100B4000080190E00E94670729C08091090190E0A8
:100B50000E94670723C080910A0190E00E94670706
:100B60001DC080910B0190E00E94670717C0809123
:100B70000C0190E00E94670711C080910D0190E088
:100B80000E9467070BC080910E0190E00E946707EA
:100B900005C080910F0190E00E946707DF91CF911F
:100BA0001F910F9108950F931F93CF93DF93282FD9
:100BB00030E008EE13E0C901B8010E946E07EB01B6
:100BC00070934A026093490248E15CEF649FC00160
:100BD000659F900D749F900D1124820F931F64E602
:100BE00070E00E946E077093480260934702C09FB6
:100BF000F001C19FF00DD09FF00D112444E6469FF7
:100C0000C001479F900D1124E80FF91FC9018E1BE9
:100C10009F0B6AE070E00E946E077093460260933B
:100C20004502CB01880F991F660F771F660F771F4C
:100C3000660F771F680F791F6E0F7F1F261B370BFC
:100C400030934402209343028AE090E00E946707B9
:100C50008BE192E00E945607E0914702F091480232
:100C6000EA30F10508F03FC0E658FF4F0C948207C8
:100C70008091060190E00E94670735C080910701CE
:100C800090E00E9467072FC08091080190E00E94C9
:100C9000670729C08091090190E00E94670723C07F
:100CA00080910A0190E00E9467071DC080910B01AE
:100CB00090E00E94670717C080910C0190E00E94AD
:100CC000670711C080910D0190E00E9467070BC07B
:100CD00080910E0190E00E94670705C080910F018E
:100CE00090E00E946707E0914502F0914602EA30E9
:100CF000F10508F03FC0EC57FF4F0C94820780913C
:100D0000060190E00E94670735C08091070190E0DE
:100D10000E9467072FC08091080190E00E9467073A
:100D200029C08091090190E00E94670723C080914B
:100D30000A0190E00E9467071DC080910B0190E0BE
:100D40000E94670717C080910C0190E00E9467071E
:100D500011C080910D0190E00E9467070BC0809147
:100D60000E0190E00E94670705C080910F0190E09E
:100D70000E946707E0914302F0914402EA30F105D6
:100D800008F03FC0E257FF4F0C94820780910601A4
:100D900090E00E94670735C08091070190E00E94B3
:100DA00067072FC08091080190E00E94670729C063
:100DB0008091090190E00E94670723C080910A0199
:100DC00090E00E9467071DC080910B0190E00E9497
:100DD000670717C080910C0190E00E94670711C05F
:100DE00080910D0190E00E9467070BC080910E0179
:100DF00090E00E94670705C080910F0190E00E947B
:100E00006707DF91CF911F910F91089584B18C6294
:100E100084B984B18F7E84B98CB58F7D8CBD8CB53F
:100E2000877F8CBD8CB58B7F8CBD8CB581608CBD74
:100E30008CB58D7F8CBD8DB58E7F8DBD8CB5806161
:100E40008CBD8CB580648CBD0895823019F485B159
:100E50008B7F85B90895823019F485B1846085B996
:100E600008958EBD0DB407FEFDCF08950DB407FEA5
:100E7000FDCF8EB508958AB18E7F8AB98AB182601E
:100E80008AB91092C000E1ECF0E01082808188699C
:100E90008083E2ECF0E0108280818660808387E6C8
:100EA00090E09093C5008093C4000895AC0120E0C9
:100EB00007C09091C00095FFFCCF3093C6002F5F14
:100EC000FA01E20FF11D30813111F3CF08959091B5
:100ED000C00095FFFCCF8093C600089597FB072EB6
:100EE00016F4009407D077FD09D00E94880707FC0C
:100EF00005D03EF4909581959F4F0895709561952A
:100F00007F4F0895EE0FFF1F0590F491E02D099497
:100F1000AA1BBB1B51E107C0AA1FBB1FA617B7071F
:100F200010F0A61BB70B881F991F5A95A9F780953B
:0C0F30009095BC01CD010895F894FFCF0E
:100F3C00000005000500303132333435363738398E
:100F4C000A0D20202020202A2A2A2A2A2A2A2A2A64
:100F5C002A2A2A2A2A486F6C6120636F6D6F2065DC
:100F6C007374612A2A2A2A2A2A2A2A2A2A2A2A2A0B
:100F7C002A2A2A0020202020202020202020436FF5
:100F8C006C6F71756520312070617261206C6565C4
:100F9C007220706F74656E63696F6D6574726F73B8
:100FAC000020202020202020202020436F6C6F71F7
:100FBC0075652032207061726120696E6372656D97
:100FCC00656E74617220636F6E7461646F720A0D6A
:100FDC000050726573696F6E65202B2070617261B1
:100FEC0020696E6372656D656E7461722C202D20A4
:100FFC00706172612064656372656D656E74617297
:10100C002C20652070617261206D656E7520707288
:10101C00696E636970616C200A0D0056616C6F72A9
:10102C0020706F74656E63696F6D6574726F2031BB
:10103C003A200056616C6F7220706F74656E636934
:10104C006F6D6574726F20323A200056616C6F724E
:10105C002044656C20636F6E7461646F723A20007B
:00000001FF
